:030000000200AF4C
:0C00AF00787FE4F6D8FD7581080200039C
:0C007D001200987FFF120098C2CCD2CC79
:0E00890000007F0D7E9C7D53DDFEDEFCDFFA65
:010097002246
:10009800E4F508EF3392B3C2B2D2B2EF25E0FF0520
:0700A80008E508B408ED2291
:10000300E4F5B2F5B1F5CAF5C97F7F12007D7FBF74
:1000130012007D7FDF12007D7FEF12007D7FF712DC
:10002300007D7FFB12007D7FFD12007D7FFE1200AD
:100033007D7FFF1200987F7F1200827FFF1200985E
:100043007FBF1200827FFF1200987FDF1200827F42
:10005300FF1200987FEF1200827FFF1200987FF754
:100063001200827FFF1200987FFD1200827FFF1231
:0A00730000987FFE12008202000CCC
:00000001FF
