:0300000002027A7F
:0C027A00787FE4F6D8FD75810B02028647
:10000E00FFFFFFFFFFFFFFFFFFFFFFFFFC001FFFD4
:10001E00FFFFFDFEFFFFFFFFFDFEFFFFFFFFFC00EA
:10002E003FFFFFFFFC007FFFFFFFFEFDFFFFFFFF17
:10003E00FEFDFBFFFFFFFEFBF9FFFFFFC00003FF0E
:10004E00FFFFFEF7FFFFFFFFFEF7FBFFFFFFFEEFD9
:10005E00FBFFFFFFFEEFFBFFFFFFFEF0FBFFFFFFCF
:10006E00EEFE3BFFFFFFF0FFFBFFFFFFFAFF03FF7C
:10007E00FFFFFEC0FBFFFFFFFCCFFBFFFFFFFEFFFE
:10008E00FBFFFFFFFFFFFFFFFFFFFFFFFFFFFFFF76
:10009E00FFFFFFFFFFFFFFFFFFFFFFFFFC001FFF44
:1000AE00FFFFFDFEFFFFFFFFFDFEFFFFFFFFFC005A
:1000BE003FFFFFFFFC007FFFFFFFFEFDFFFFFFFF87
:1000CE00FEFDFBFFFFFFFEFBF9FFFFFFC00003FF7E
:1000DE00FFFFFEF7FFFFFFFFFEF7FBFFFFFFFEEF49
:1000EE00FBFFFFFFFEEFFBFFFFFFFEF0FBFFFFFF3F
:1000FE00EEFE3BFFFFFFF0FFFBFFFFFFFAFF03FFEC
:10010E00FFFFFEC0FBFFFFFFFCCFFBFFFFFFFEFF6D
:10011E00FBFFFFFFFFFFFFFFFFFFFFFFFFFFFFFFE5
:10012E00FFFFFFFFFFFFFFFFFFFFFFFFFC001FFFB3
:10013E00FFFFFDFEFFFFFFFFFDFEFFFFFFFFFC00C9
:10014E003FFFFFFFFC007FFFFFFFFEFDFFFFFFFFF6
:10015E00FEFDFBFFFFFFFEFBF9FFFFFFC00003FFED
:10016E00FFFFFEF7FFFFFFFFFEF7FBFFFFFFFEEFB8
:10017E00FBFFFFFFFEEFFBFFFFFFFEF0FBFFFFFFAE
:10018E00EEFE3BFFFFFFF0FFFBFFFFFFFAFF03FF5B
:10019E00FFFFFEC0FBFFFFFFFCCFFBFFFFFFFEFFDD
:1001AE00FBFFFFFFFFFFFFFFFFFFFFFFFFFFFFFF55
:07023E003508F583E493FF8E
:10024500E4F50AF50BEF3392B4C2B3D2B3EF25E070
:10025500FF050BE50B7002050A6408450A70E622E6
:10026500D2AFD2A9438E805389F0758A20758CD17F
:05027500C28DD28C22B5
:0A028600E4F508F50912026580FE98
:03000B000201BE31
:1001BE00C0E0C083C082C0D075D000C007758A2051
:1001CE00758CD1740E2509F582740012023E740FDF
:1001DE002509F582740012023E74102509F5827409
:1001EE000012023E74112509F582740012023E744B
:1001FE00122509F582740012023E74132509F58248
:10020E00740012023EC2B2D2B274062509F509E498
:10021E003508F508D3E50994AFE508940140067555
:10022E000800750900D007D0D0D082D083D0E0323C
:00000001FF
