:03000000020154A6
:0C015400787FE4F6D8FD75810D02000EE6
:10013F00D2AFD2A9438E805389F0758A23758CFF75
:05014F00C28DD28C22DC
:10000E0012013F209426209306750A00750B1920C5
:10001E009206750A00750B1E209106750A00750B67
:10002E00232090DF750A00750B2D80D72095262092
:10003E009306750A00750B37209206750A00750B2C
:10004E003C209106750A00750B412090DF750A0061
:10005E00750B4680D7209626209306750A00750BE1
:10006E004B209206750A00750B55209106750A00F5
:10007E00750B5A2090DF750A00750B6480D7209798
:10008E0082209306750A00750B69209206750A0088
:10009E00750B6E209106750A00750B782090DF7532
:0700AE000A00750B7D80D7ED
:03000B000200B53B
:1000B500C0E0C0D0758A23758CFFD3E509950BE5A3
:1000C50008950A5004D2CD8002C2CDE509B4E80BEB
:1000D500E508B403067508007509000509E509700A
:1000E500020508E50D450C7008C294D295D296D24A
:1000F50097E50D6401450C7008D294C295D296D24D
:1001050097E50D6402450C7008D294D295C296D23B
:1001150097E50D6403450C7008D294D295D296C22A
:1001250097E50D6404450C7004F50CF50D050DE51A
:0A0135000D7002050CD0D0D0E032AE
:00000001FF
