:03000000020123D7
:0C012300787FE4F6D8FD75810902000326
:0C011600D2CC7F01DFFE7F02DFFEC2CCF6
:0101220022BA
:08013A00D2CC7F08DFFEC2CC2D
:01014200229A
:0A012F00C2CC7F647E1FDEFEDFFA03
:0101390022A3
:06009D007A007D027C00E8
:1000A300AE07E4F509EE30E70512013A80031201C9
:1000B30016EE25E0FE0509E509C3940840E7E4F5DB
:1000C30009ED30E70512013A8003120116ED25E030
:1000D300FDEC33FC0509E509C3940840E4E4F509A4
:1000E300EB30E70512013A8003120116EB25E0FB22
:0D00F300EA33FA0509E509C3940840E42248
:07010000FF1200A312012F02
:0E01070000007F0C7E677D39DDFEDEFCDFFA36
:0101150022C7
:10000300E4F5B2F5B1F5CAF5C9FBFAFDFC1201003E
:10001300E4FBFAFDFC7F011200A3E4FBFA7D02FC82
:10002300FF1200A37B037A00E4FDFCFF1200A3E4AC
:10003300FBFA7D04FCFF1200A3E4FBFAFDFC7F0541
:100043001200A3E4FBFA7D06FCFF1200A37B077AF0
:1000530000E4FDFCFF1200A37B037F0112009D7BE4
:10006300017F0312009D7B037A007D017C007F02E8
:100073001200A37B027A007D037C007F011200A3A0
:10008300E4FBFA7D02FC7F051200A37B057A007D69
:0A009300027C00E4120100020013D9
:00000001FF
