:100000000205D000002060606070F0F0F030381819
:1000100010000000C0E0C080000000FCFC000000F8
:10002000000000000000000000FCFCFC00000000DC
:1000300080808080808080FCFC80808080808080C8
:1000400080000000000000606060606060606060D0
:1000500060E0E0E060606060606060606060600080
:10006000000000000000000000F8F80000000000A0
:10007000181818181818181898D8F8783838180058
:1000800000000000003838383838FFFFFF383838B3
:1000900038384060E0C18307060000FFFF00000021
:1000A000000000000006060606FFFFFF8686C60069
:1000B00001C1C1C1C1C1C1FFFFC1C1C1C1C1C10134
:1000C000010000000000000000000000000000002F
:1000D00000FFFFFF00000000000000000000000023
:1000E000000000000018181818FFFF181818180052
:1000F00020607078F8FCFE7773F1F0F07070F0F02B
:10010000F00000000080C0F07C1FFFFFFF0203072B
:100110000ECCE0E060616377723030FFFF38181872
:1001200018180000001C1C0C0EFFFFFF030101004B
:100130000000010F3FF8E08080C0F07C3F0F01001D
:1001400000000000000000000000000000000000AF
:1001500000FFFFFF000000000000000000000000A2
:10016000000000000000008080FFFFC0E06060B081
:10017000C0E0F03C1F0701C0F87F1F010000FFFF37
:100180001F0000000103030000007F7F7F000000CC
:1001900000000000000000000000007F7F00000061
:1001A0000000000000003070703F3F1F0000207012
:1001B000703038181C0C0F07070F0C1C3838707083
:1001C00060000000181818181818181818181818AF
:1001D000181F1F1F1818181818181818181818188A
:1001E00018180000010703030101010000000003CB
:1001F000013070381C1E0F030100307070383F1F33
:1002000000000000F018080818E000000F1020306F
:10021000180F00006020F0F80000000000003F3FD1
:100220000000000030180808D8700000303834335F
:100230003130000030180888D870000018102021D4
:10024000130E000000806030F8000004070504046D
:100250003F040400F098C88888080008193020304E
:10026000190F000080C0F098800000001F3120208E
:10027000301F060008080888E838000000303E03F8
:1002800000000000F0888888D87000041F31212108
:10029000311E00E0F008080898F0000001233A0F32
:1002A000030000000000000000000000000000004B
:1002B000000000CA3B7D727CC77CDB75090074229C
:1002C00012056BE5090A4B0A5C2D5412056B740785
:1002D00012056B7508008006E412054E0508BED1B4
:1002E0000838F57508007E2427107D378D327E246E
:1002F000000A8D323E243E243E243E247E31097481
:1003000008AC3BE5080A3B2D312D322E3402037A2E
:1003100071827A6183E49312054E0508E508B408FA
:10032000C57508007E2403E87D378D327E24000ADF
:100330008D323E243E243E243E247E31097408AC96
:100340003BE5080A3B2D312D322E3402037A7182AF
:100350007A6183E49312054E0508E508B408C57573
:1003600008007E2400647D378D327E24000A8D32A1
:100370003E243E243E243E247E31097408AC3BE5F5
:10038000080A3B2D312D322E3402037A71827A61B4
:1003900083E49312054E0508E508B408C575080006
:1003A0007E14000A7D378D318D313E243E243E245B
:1003B0003E247E31097408AC3BE5080A3B2D312D03
:1003C000322E3402037A71827A6183E49312054EED
:1003D0000508E508B408C97508007E24000A7D37C1
:1003E0008D323E243E243E243E247E31097408ACE6
:1003F0003BE5080A3B2D312D322E3402037A7182FF
:100400007A6183E49312054E0508E508B408CB0A27
:100410005D2E540028F5088006E412054E0508E517
:1004200008BEB08040F30509E509BEB002500302E2
:1004300002BEDA3B2274AE12056BE412056B741037
:1004400012056B744012056B74B012056B74811247
:10045000056B74FF12056B74A112056B74A612056F
:100460006B74C912056B74A812056B743F12056B8F
:1004700074D312056BE412056B74D512056B74808E
:1004800012056B74D912056B74F112056B74DA12D4
:10049000056B741212056B74DB12056B7440120548
:1004A0006B748D12056B741412056B74AF02056BBF
:1004B000CA3B6D777ED004742212056B7CBD120599
:1004C0006B740712056B6CCC7D372E3400037A7188
:1004D000827A6183E49312054E0B740BC0BEC08018
:1004E00078E60BD0BED00840CEDA3B22A9D7BA7549
:1004F000EA0075E90075960075950012043512043E
:10050000B06D7774287E70017D271202B30B74BE24
:10051000744E2078EE7E34000A1205A080E3CA797A
:100520007CFB7EE008801C7CBF30E704D2A4800204
:10053000C2A474021205B8D2A51205B8C2A512054C
:10054000B83EF07CAE1BE04CAA78DCDA7922CAF81F
:100550007CFB120587744012051E1205E67CBF1253
:10056000051E1205E61205F7DAF822CAF87CFB121E
:100570000587E412051E1205E67CBF12051E120552
:10058000E61205F7DAF822C2A474021205B8D2A561
:100590001205B8C2A51205B8747812051E0205E648
:1005A0007D13800B0000007E18176E1B1C78FC7DED
:1005B000011B047D1078ED227C3B800B0000007E47
:1005C0001800041B1C78FC7C231B30A5BA00ED220C
:1005D0007584017E44041FE47A49B01B4478F97E97
:1005E000F800090204ECD2A474021205B8D2A512D4
:1005F00005B8C2A50205B8D2A574051205B8C2A4F3
:080600001205B8D2A40205B8EE
:00000001FF
