:030000000200E219
:0C00E200787FE4F6D8FD75810B02006EFB
:06005100AE071FEE601671
:10005700000075080C750967750A39D50AFDD509B9
:04006700FAD508F7C7
:03006B0080E4220C
:0C00D5007F0E7EAE7DE0DDFEDEFCDFFA7B
:0100E10022FC
:0E00A80000007F067E797DBDDDFEDEFCDFFA06
:0100B6002227
:0E00B70000007F027E437DB7DDFEDEFCDFFA37
:0100C5002218
:020087008F0BDD
:0E00890000007F027EAF7D4BDDFEDEFCDFFA65
:010097002246
:0E00C60000007F0B7E7D7DC4DDFEDEFCDFFAD8
:0100D4002209
:0900EE00C2B2C2B3C2B4C2B52211
:0900F700D2B2C2B3C2B4D2B522E8
:09010000C2B2D2B3C2B4D2B522DE
:09010900D2B2C2B3D2B4C2B522D5
:09011200C2B2D2B3D2B4C2B522CC
:1000980020970C1201121200A81201091200A822BE
:100003002095047F0180027F002096047E018002F8
:100013007E00EE5F60031200F730960612010912AC
:1000230000B73095061201001200B73095047F0126
:1000330080027F003096047E0180027E00EE5F60C6
:0E0043000C1201121200511201091200A82223
:10006E00D2B020B0131200D530B00512000380F8C4
:09007E001200EE1200D580EA2206
:00000001FF
