:0300000002067E77
:0C067E00787FE4F6D8FD75810F02066A53
:10000300FFFFFFFFFFFFFFFFFFFFFFFFFFFFFFFFFD
:10001300FFFFFFFFFFFFFFFFFFFFFFFFFFFFFFFFED
:10002300FFFFFFFFFFFFFFFFFFFFFFFFFFFFFFFFDD
:10003300FFFFFFFFFFFFFFFFFFFFFFFFFFFFFFFFCD
:10004300FFFFFFFFFFFFFFFFFFFFFFFFFFFFFFFFBD
:10005300FFFFFFFFFFFFFFFFFFFFFFFFFFFFFFFFAD
:10006300FFFFFFFFFFFFFFFFFFFFFFFFFFFFFFFF9D
:10007300FFFFFFFFFFFFFFFFFFFFFFFFFFFFFFFF8D
:10008300FFFFFFFFBFDFDFDFDF1F0FEFE7E7E7FF65
:10009300FF0307F7FFFFEFCF9F1F3FFFFFFFFFFFA9
:1000A300FFFFF7F7F7F7F7F7F70000F7F7F7F7F7BB
:1000B300F7F00077F7F7F7F7773672F1F7FFFFFFFF
:1000C300FFFFCF8FCFE7E7F7F70000FBFDFDFDFE56
:1000D300FFFF70001F4FE3F1FCFEFFFFFF7FFFFFF9
:1000E300FFFFFFFFFFEFEFCF8FC0E0EFF7F7FBF965
:1000F300FDFEFEFFFEFCF8F1E3E7CFCFC380BFFFB9
:10010300FFFFFFFFFF0307F7FFFFFFFFFFFFFFFFF8
:10011300FF0307F7FFFFFFFFFFFF7FFFFFFFFFFF68
:10012300FFFFFFFFFF0000DFDFDFDFDFDFCFDFFFEA
:10013300FF00007FBFDFCFE7F3F8FCFCFFFFFFFF0B
:10014300FFFFFFFFFF0000FFFFFFFFFFFFFF7FFF3A
:10015300FF0000FFFFFFFFFFFFFFFF1FFFFFFFFF8A
:10016300FFFFFFFFFFF0E0F3FBF9FDFCFEFEFFFFE7
:10017300FFF0E0E7E7E7E7E7E7E7E7E0E1F7FFFFBF
:10018300FFFFFFFFFFFFFFFFFFFFFFFFFFFFFFFF7C
:10019300FFFFFFFFFFFFFFFFFFFFFFFFFFFFFFFF6C
:1001A300FFFFFFFFFFFFFFFFFFFFFFFFFFFFFFFF5C
:1001B300FFFFFFFFFFFFFFFFFFFFFFFFFFFFFFFF4C
:1001C300FFFFFFFFFFFFFFFFFFFFFFFFFFFFFFFF3C
:1001D300FFFFFFFFFFFFFFFFFFFFFFFFFFFFFFFF2C
:1001E300FFFFFFFFFFFFFFFFFFFFFFFFFFFFFFFF1C
:1001F300FFFFFFFFFFFFFFFFFFFFFFFFFFFFFFFF0C
:10020300FFFFFFFFFFFFFFFFFFFFFFFFFFFFFF03F7
:1002130007FFFFFFFFFFFFFFFFFFFFFFFFFFFFFFE3
:10022300FFFFFFFFFF0001FDFDFDFDFDFDFDFD00E7
:1002330000FDFDFDFDFDFDFDFD0100FDFFFFFFFFD9
:10024300FFFFFFFFFF0000FBFBFBFBFBFBFBFB00D8
:1002530000FBFBFBFBFBFBFBFB0000FFFFFFFFFFC8
:10026300FFFFFFFFFFC0C0F7F7F7F7F7F7F7F7F068
:10027300F0F7F7F7F7F7F7F7F7C0C0FFFFFFFFFF58
:10028300FFFFFFFFFFFFFFFFFFFFFFFF3F0F83E7BF
:10029300D73F7FFFFFFFFFFFFFFFFFFFFFFFFFFFD3
:1002A300FFFFFF7F7FBF9FDFAFA3B1B8BCBFBF3FDF
:1002B300BFBFBEBCB993A7CFCF9F9F1F3FBFFFFF59
:1002C300FFFFFEFFFFEFEFAF6FEFEFEFEFEFEF009B
:1002D300EFEFEFEFEF6F2F6FE7E7EFFFFFFFFFFFAB
:1002E300FFFFDFDFDFDFDFDFDEDCC0D1DFDFDFC02B
:1002F300DFDFDFC7D1D8DEDFDFDFDFCFCFDFFFFF19
:10030300FFFFFFFFFFFFFFFF3FFFFFFFFFFF0307AE
:10031300F7FFFFFFFF7F1F9FFFFFFFFFFFFFFFFFB2
:10032300FFFFFFFFFFFFFFF87C7F3F9FCFE3303CE2
:100333007BFBFBF5F6E7EFCF8F1F3FFFFFFFFFFFD1
:10034300FFFFFFFFFD7D3E0E83FFFFFF7F0F80F06A
:10035300F3CF3F7F9FCFE7F1F1FBFFFFFFFFFFFFEE
:10036300FFFFBFBFBFDFDFEFEFF7F3F8FCFEFFFFD9
:10037300FFFFFFFEFCF9F3E7E7C7CFCFEFEFFFFF88
:10038300FFFFFFFF7FFFFFFFFF0307F7FFFFFFFFF6
:10039300FFFFFFFF0307FFFFFFFFFFFFFFFFFFFF5E
:1003A300FFFFFFFF0000FFFFFF0000FFFFFF010152
:1003B300FDFDFDFD0000FDFDFDFD0100FDFFFFFF57
:1003C300FFFFFFFFC0E0FF7F0F80FCFFFFFF000088
:1003D300FFFFFFFF0000FF7F7F7F0000FFFFFFFFA6
:1003E300FFFFBFDFEFF7F9FCFEFFFFFFFFFFFEFE9E
:1003F300FFFFFFFF80C0FFFFFFFCFEFFFFFFFFFFCC
:04057F00AA06AB0716
:10058300EB1B70011A144A6032000000E4750B6E15
:10059300750A17F509F508AF0BAE0AAD09AC08ECFF
:1005A3004D4E4F60DBEF24FFF50BEE34FFF50AED04
:0B05B30034FFF509EC34FFF50880DC94
:0105BE00221A
:0205BF00AB0788
:1005C100AF031BEF6031000000E4750F04F50EF579
:1005D1000DF50CAF0FAE0EAD0DAC0CEC4D4E4F60EA
:1005E100DFEF24FFF50FEE34FFF50EED34FFF50DCF
:0705F100EC34FFF50C80DC87
:0105F80022E0
:0F061A0012068A747890FE86F090FE81748AF042
:0F06290090FE82E030E6F990FE82E054BFF022AE
:09068A0090FE817481F002062942
:0906930090FE817486F002062934
:0F05F9007403250DF5827400350CF583E493FF30
:1006080012061A744012061F90FE86EF1206220286
:02061800069347
:1006520012061A90FE86E412062290FE86EFF090B1
:08066200FE81748AF002069388
:10063800EF44B0FF120652ED54F0C4540F4410FFBB
:0A064800120652ED540FFF02065295
:1004F8007F021205BF7FAE120652E4FF1206527F3A
:10050800101206527F401206527FB01206527F81A7
:100518001206527FFF1206527FA11206527FA612C0
:1005280006527FC91206527FA81206527F3F120652
:10053800527FD3120652E4FF1206527FD51206529A
:100548007F801206527FD91206527FF11206527F1F
:10055800DA1206527F121206527FDB1206527F40D1
:100568001206527F8D1206527F141206527F101205
:0705780006527FAF0206529C
:10040300E4F50CF50DFCAF04E4FD120638E4FE122E
:1004130005F9050DE50D7002050C0EBE20F10CBCAF
:1004230004E4E4FCAF047D20120638E4FE1205F96F
:10043300050DE50D7002050C0EBE20F10CBC04E4A5
:10044300E4FCAF047D40120638E4FE1205F9050D05
:10045300E50D7002050C0EBE20F10CBC04E4E4FCB7
:10046300AF047D60120638E4FE1205F9050DE50DB3
:100473007002050C0EBE20F10CBC04E47C04AF0436
:10048300E4FD120638E4FE1205F9050DE50D7002D0
:10049300050C0EBE20F10CBC08E47C04AF047D20E7
:1004A300120638E4FE1205F9050DE50D7002050C80
:1004B3000EBE20F10CBC08E47C04AF047D401206A0
:1004C30038E4FE1205F9050DE50D7002050C0EBEAC
:1004D30020F10CBC08E47C04AF047D60120638E410
:1004E300FE1205F9050DE50D7002050C0EBE20F197
:0404F3000CBC08E451
:0104F70022E2
:10066A00E4F592F59175BA8090FE8074C0F0120498
:04067A00F80204037B
:00000001FF
