:0300000002008873
:0C008800787FE4F6D8FD75810A020020A4
:06000300AE071FEE6016BF
:10000900000075080C750967750A39D50AFDD50907
:04001900FAD508F715
:03001D0080E4225A
:0C007B007F0E7EAE7DE0DDFEDEFCDFFAD5
:010087002256
:0E005D0000007F027E437DB7DDFEDEFCDFFA91
:01006B002272
:0E006C0000007F027EAF7D4BDDFEDEFCDFFA82
:01007A002263
:09009400D2B2D2B3D2B4D2B5222B
:09009D00C2B2D2B3C2B4D2B52242
:0900A600D2B2C2B3C2B4D2B52239
:0900AF00C2B2D2B3D2B4C2B52230
:0900B800D2B2C2B3D2B4C2B52227
:100039002097101200B87F021200031200AF7F014F
:04004900120003227C
:10004D0012009D3095031200A63096031200AF22C8
:10002000D2B020B01312007B30B00512004D80F822
:0900300012009412007B80EA2208
:00000001FF
