:0300000002069263
:0C069200787FE4F6D8FD75811D02062279
:100648001206027FF7120602C2B4D2B4AF19AE186E
:040658008E1C8F1D48
:08065C007F6C7E91DEFEDFFCE5
:010664002273
:1005A0007F081206027FEF120602C2B4D2B412050F
:1005B000F27F201206027FBF120602C2B4D2B4122A
:1005C00005F27F801206027FFE120602C2B4D2B488
:1005D0001205F27F021206027FFD120602C2B4D299
:1005E000B41205F27F021206027FEF120602C2B4B5
:0205F000D2B483
:0805F2007F017E92DEFEDFFCBA
:0105FA0022DE
:0E06650000007F5C7E327DEEDDFEDEFCDFFA03
:010673002264
:0E06740000007F057E907D47DDFEDEFCDFFA94
:010682002255
:0E06830000007F097E687D8BDDFEDEFCDFFA65
:010691002246
:0705FB00E4FF120602E4FF19
:10060200E4F508F509EF3392B3C2B5D2B5EF25E0B0
:10061200FF0509E509700205086408450870E6222D
:0A06AA001205FBC2B4D2B4020674BC
:10020A007518007519057F011206027FBF12064D87
:10021A007F801206027FEF12064D7F081206027FC8
:10022A00FE12064D7F401206027FEF12064D7F1026
:10023A001206487F011206487F021206487F0412FE
:10024A0006487F021206027F7F12064D7F101206B1
:10025A00027FEF12064D7F101206027FFD12064D35
:10026A007F401206027FFD12064D7F021206027FB0
:10027A00FE12064D7F201206027FFD12064D7F8078
:10028A001206027FFD12064D7F201206487F0412D5
:10029A0006027FFE12064D7F081206487F8012066C
:1002AA00027F7F12064D7F401206027FFE12064D24
:1002BA007F801206487F801206027FDF12064D7F7A
:1002CA00081206027FFB12064D7F101206027FFB00
:1002DA0012064D7F401206027FDF12064D7F201262
:1002EA0006027FFB12064D7F401206487F0812065F
:1002FA00027FBF12064D7F041206027FDF12064DEF
:10030A007F041206027FFD12064D7F081206027F45
:10031A00DF12064D7F101206027FDF12064D7F02A2
:10032A001206027FDF12064D7F201206027FDF12BD
:10033A00064D7F081206027FFD12064D7F01120646
:10034A00027FFE12064D7F101206027FBF12064D73
:10035A007F011206027FEF12064D7F201206027FEE
:10036A00FE12064D7F201206027FEF12064D7F080D
:10037A001206027F7F12064D7F101206027F7F123D
:10038A00064D7F201206027F7F12064D7F4012061D
:10039A00027F7F12064D7F041206027FBF12064DAE
:1003AA007F041206027F7F12064D7F021206027F29
:1003BA00BF12064D7F101206027FFE12064D12066C
:1003CA00AAE519151970021518D3E5199400E5184C
:0803DA0094004003020210220E
:10000300E4F51AF51BE4F50CF50D7F011206027FEA
:10001300BF1205EB7F801205E67F081206027FFE02
:100023001205EB7F401205E67F101206027FF712DE
:1000330005EB7F011206027FF71205EB7F02120622
:10004300027FF71205EB7F041206027FF71205EB1E
:100053007F021206027F7F1205EB7F101205E67FF7
:10006300101206027FFD1205EB7F401206027FFD90
:100073001205EB7F021206027FFE1205EB7F2012B0
:1000830006027FFD1205EB7F801206027FFD12053B
:10009300EB7F201206027FF71205EB7F04120602A4
:1000A3007FFE1205EB7F081206027FF71205EB7F36
:1000B300801206027F7F1205EB7F401206027FFE4D
:1000C3001205EB7F801206027FF71205EB7F801289
:1000D30006027FDF1205EB7F081206027FFB120583
:1000E300EB7F101206027FFB1205EB7F4012060224
:1000F3007FDF1205EB7F201206027FFB1205EB7FE9
:10010300401206027FF71205EB7F081206027FBF3B
:100113001205EB7F041206027FDF1205EB7F041248
:1001230006027FFD1205EB7F081206027FDF120530
:10013300EB7F101206027FDF1205EB7F021206022D
:100143007FDF1205EB7F201206027FDF1205EB7FB4
:10015300081206027FFD1205EB7F011206027FFEE5
:100163001205EB7F101206027FBF1205EB7F01120F
:1001730005E67F201206027FFE1205EB7F201205A3
:10018300E67F081206027F7F1205EB7F101206023C
:100193007F7F1205EB7F201206027F7F1205EB7F24
:1001A300401206027F7F1205EB7F041206027FBF17
:1001B3001205EB7F041206027F7F1205EB7F02120A
:1001C30006027FBF1205EB7F101206027FFE1205A7
:1001D300EB050DE50D7002050CC3941EE50C9400B0
:1001E300500302000DE4FF120602E4FF1205EB12B6
:1001F3000683051BE51B7002051AC39405E51A94D3
:070203000050030200082275
:10053F00E4F514F515E4F512F5137F011206027FA9
:10054F00FB1205EB7F021206027FFB1205EB7F0405
:10055F001206027FFB1205EB7F011206027FDF12EC
:10056F0005EB0513E51370020512C39432E51294DF
:10057F000040C71205FBC2B4D2B41206740515E5CC
:10058F001570020514C39406E514940040A70206E3
:01059F0074E7
:1004A300E4F510F5111205A00511E5117002051010
:1004B300C39420E510940340ECE4F510F511120504
:1004C300A07F041205E67F801206027FBF1205EBB0
:1004D3000511E51170020510C394F4E51094014071
:1004E300DDE4F510F5111205A07F041205E67F8007
:1004F3001206027FBF1205EB7F011206027F7F12F5
:1005030005EB7F801206027FFB1205EB7F011206CB
:10051300027FFD1205EB7F401206027FFB1205EB03
:100523007F401206027FBF1205EB0511E511700231
:0C0533000510C3942CE510940140AB228D
:0A06B4001205FBC2B4D2B4020665C1
:0C069E007FFF1205FDC2B4D2B402066555
:1003E200E4F50AF50B7F011206027FFB1205EB7F93
:1003F200021206027FFB1205EB7F041206027FFB4C
:100402001205EB7F011206027FDF1205EB1205A037
:100412007F041205E67F801206027FBF1205EB7F82
:10042200011206027F7F1205EB7F801206027FFB1C
:100432001205EB7F011206027FFD1205EB7F4012CF
:1004420006027FFB1205EB7F401206027FBF1205F8
:10045200EB050BE50B7002050AC394F4E50A94015F
:100462004083E4F510F5117F011206027FFB1205AD
:10047200EB7F021206027FFB1205EB7F04120602DB
:100482007FFB1205EB7F011206027FDF1205EB05EF
:1004920011E51170020510C394E8E510940340C7FA
:0104A2002237
:10062200E4F5B2F5B1F5CAF5C912020A12000312D5
:1006320006AA12053F1206AA1204A31206AA120360
:06064200E21206B480E3A1
:00000001FF
