:0300000002009368
:0C009300787FE4F6D8FD7581190200DAD0
:0C01A6000A10C0F9A4B0999282F8809071
:03017400F8E6FFAB
:10017700E4F50EF50FEF3392CCC2B3D2B3EF25E01F
:10018700FF050FE50F7002050E6408450E70E622A5
:0801B3007F0C7EA9DEFEDFFCDB
:0101BB002221
:0801BC007F757EB8DEFEDFFC5A
:0101C4002218
:0E01970000007F2E7E997DF5DDFEDEFCDFFA96
:0101A5002237
:10000300E4F508F509AE08AF097C007D0A12011F6B
:100013008D0AAE08AF097C007D0A12011F7C007DAA
:100023000A12011F8D0BAE08AF097C007D6412011B
:100033001F7C007D0A12011F8D0CAE08AF097C03E3
:100043007DE812011F7C007D0A12011F8D0D7410C3
:10005300250A1201747410250B1201747410250CF7
:10006300F8E6FF1201777410250DF8E6FF12017709
:10007300C2B2D2B20509E50970020508D3940FE5AF
:100083000894274005E4F508F509120197020008D2
:10009F00020003E493A3F8E493A34003F68001F274
:1000AF0008DFF48029E493A3F85407240CC8C33362
:1000BF00C4540F4420C8834004F456800146F6DF31
:1000CF00E4800B01020408102040809001A6E47E1A
:1000DF00019360BCA3FF543F30E509541FFEE49326
:1000EF00A360010ECF54C025E060A840B8E493A3ED
:1000FF00FAE493A3F8E493A3C8C582C8CAC583CA18
:10010F00F0A3C8C582C8CAC583CADFE9DEE780BECF
:0101B200004C
:10011F00BC000BBE0029EF8DF084FFADF022E4CCC4
:10012F00F875F008EF2FFFEE33FEEC33FCEE9DEC8D
:10013F00984005FCEE9DFE0FD5F0E9E4CEFD22EDD3
:10014F00F8F5F0EE8420D21CFEADF075F008EF2F1D
:10015F00FFED33FD4007985006D5F0F222C398FD0E
:05016F000FD5F0EA22AB
:00000001FF
