:030000000200A259
:0C00A200787FE4F6D8FD75810E020003A3
:06007800AE071FEE600E52
:0C007E00750D75750EB8D50EFDD50DFA88
:03008A0080EC22E5
:03003B00E4FFFEE1
:10003E00E4F508EE30E704C2B48002D2B4C2B3D203
:10004E00B3EF25E0FFEE33FE0508E508B410E42219
:10008D0012003B12003BE4FFFE12003EC2B2D2B2A0
:05009D007F0102007864
:10005E0012003EAF05AE0412003EAF03AE02120018
:0A006E003EC2B2D2B27F0102007858
:1000030012008D750B00750C01E4F509F50AAB0CB4
:10001300AA0BE4FDFCFFFE12005EE50C25E0F50CE7
:10002300E50B33F50B050AE50A70020509C39410C5
:08003300E509940040D880CBE0
:00000001FF
