:030000000200BE3D
:0C00BE00787FE4F6D8FD7581070200038E
:0E00A00000007F2E7E997DF5DDFEDEFCDFFA8E
:0100AE00222F
:0E00AF0000007FB77E647DE1DDFEDEFCDFFA3F
:0100BD002220
:10004B00D293C292D291C290D295C294D297C296B9
:01005B002282
:10005C00D293D292D291D290D295D294D297D29668
:01006C002271
:0900CA00C293C291C295C29722B3
:10006D00D293C292C291D290C295D294D297C29697
:01007D002260
:10007E00C293D292D291C290D295C294C297D29686
:01008E00224F
:10008F00D293D292D291C290D295C294D297D29655
:01009F00223E
:1000390012005C1200AF12006D1200AF12004B02E9
:0200490000AF06
:100003001200CA30B20512004B80F830B30512005B
:100013005C80F830B40512006D80F830B50512002D
:100023007E80F830B704C2CD80F930B604D2CD80DB
:06003300F91200CA80CDA5
:00000001FF
