:030000000210EB00
:0C10EB00787FE4F6D8FD758156021132C2
:1000260000002060606070F0F0F0303818100000BA
:1000360000C0E0C080000000FCFC000000000000E2
:10004600000000000000FCFCFC0000000080808036
:1000560080808080FCFC80808080808080800000A2
:100066000000000060606060606060606060E0E00A
:10007600E06060606060606060606060000000007A
:10008600000000000000F8F8000000000018181832
:10009600181818181898D8F878383818000000007A
:1000A60000003838383838FFFFFF383838383840DD
:1000B60060E0C18307060000FFFF000000000000AB
:1000C600000006060606FFFFFF8686C60001C1C1C0
:1000D600C1C1C1C1FFFFC1C1C1C1C1C10101000090
:1000E6000000000000000000000000000000FFFF0C
:1000F600FF000000000000000000000000000000FB
:10010600000018181818FFFF18181818002060703B
:1001160078F8FCFE7773F1F0F07070F0F0F0000004
:10012600000080C0F07C1FFFFFFF0203070ECCE03B
:10013600E060616377723030FFFF381818181800D6
:1001460000001C1C0C0EFFFFFF0301010000000154
:100156000F3FF8E08080C0F07C3F0F0100000000F8
:100166000000000000000000000000000000FFFF8B
:10017600FF0000000000000000000000000000007A
:10018600000000008080FFFFC0E06060B0C0E0F0CB
:100196003C1F0701C0F87F1F010000FFFF1F000082
:1001A600000103030000007F7F7F000000000000C5
:1001B60000000000000000007F7F0000000000003B
:1001C6000000003070703F3F1F0000207070303814
:1001D600181C0C0F07070F0C1C38387070600000D5
:1001E60000181818181818181818181818181F1F93
:1001F6001F1818181818181818181818181818008A
:100206000001070303010101000000000301307033
:10021600381C1E0F030100307070383F1F000000AD
:1002260000F018080818E000000F102030180F0022
:10023600006020F0F80000000000003F3F000000D2
:100246000030180808D870000030383433313000D8
:100256000030180888D870000018102021130E00EE
:100266000000806030F8000004070504043F040421
:1002760000F098C8888808000819302030190F0047
:100286000080C0F098800000001F312020301F063B
:100296000008080888E838000000303E0300000027
:1002A60000F0888888D87000041F312121311E0093
:1002B600E0F008080898F0000001233A0F03000058
:1002C6000000000000000000000000000000000028
:1002D600000000000080C040404080000000000098
:1002E6000000F0FE0F01000000000107FEF0000014
:1002F60000003FFFC000000000000080FF3F00003C
:100306000000000103060C080808060301000000AF
:100316000000000000000080C00000000000000097
:1003260000000001010101FFFF00000000000000C5
:1003360000000000000000FFFF00000000000000B9
:100346000000000808080C0F0F0C08080800000041
:1003560000000000804040404040C0808000000017
:1003660000001E1900000000000000C1FF3E000052
:1003760000000000804030180C06030100C0000099
:1003860000000E0D0C0C0C0C0C0C0C0C0E030000DB
:10039600000000808040404040C080000000000017
:1003A60000000F0F000000000080C17F3E0000002B
:1003B6000000C0C00000010101030206FCF00000BD
:1003C60000000307040808080808040603000000E4
:1003D600000000000000000000C0C0000000000097
:1003E600000000008060100C03FFFF00000000000A
:1003F60000302C262120202020FFFF202020000076
:100406000000000000000808080F0F080808000098
:1004160000000000C0C0C0C0C0C0C0C0C0C0000056
:10042600000000FF008040404040C0800000000007
:100436000000C0C30100000000000001FFFC000036
:100446000000030404080808080804070300000065
:100456000000000000808040404040808000000096
:100466000000E0FC0781C0404040C083030000005C
:1004760000007FFF8300000000000001FFFC000079
:100486000000000107060C0808080C06030000001F
:10049600000000C0C0C0C0C0C0C0C0C0C0C0000016
:1004A60000000E030000000000E018060100000036
:1004B600000000000000C0FC030000000000000077
:1004C6000000000000000F0F000000000000000008
:1004D6000000000080C040404040C0800000000096
:1004E60000003E7FF1C0C080000080417F1E0000FA
:1004F60000F0FC0E0201010103070E1EFCF00000D5
:1005060000010306040808080808040603010000A1
:100516000000008080404040404080000000000015
:1005260000FCFF030000000000000003FEF80000CE
:10053600000103070C080808080406E17F1F0000F5
:1005460000000707080808080C0603010000000061
:100556000000000000000000000000000000000095
:100566000000000000000000000000000000000085
:100576000000000000000000000000000000000075
:100586000000000000000000000000000000000065
:100596000000000000000000000000000000000055
:1005A6000000000000000000000000000000000045
:1005B6000000000000000000000000000000000035
:1005C6000000000000000000000000000000000025
:1005D6000000000000000000000000000000000015
:1005E6000000000000000000000000000000000005
:1005F60000000000000000000000000000000000F5
:1006060000000000000000000000000000000000E4
:1006160000000000808040404040808000000000D4
:1006260000E0FC0E03000000000000030E000000C6
:10063600001FFFC000000000000404FCFC040400CE
:1006460000000003060C0808080804030300000065
:10065600000000000000C0C0C00000000000000054
:1006660000000000C07C03033FFC80000000000087
:100676000000807C0F080808080B7FF88000000047
:10068600080C0F08080000000000080F0F0C0800F7
:100696004040C0C08000000000000080C0C0404054
:1006A6000000FF0FFFF0000000807807FFFF00004A
:1006B6000000FF00011FFEC0F00F0000FFFF00005A
:1006C60008080F080000030F000008080F0F0808AD
:1006D600004040C0C040404040404040C0C00000D4
:1006E600000000FFFF000000000080E0000106009F
:1006F600000000FFFF0101010101030F000080005F
:100706000008080F0F080808080808080C0E010062
:1007160000000000000000000000000000000000D3
:1007260000000000000000000000000000000000C3
:1007360000000000000000000000000000000000B3
:1007460000000000000000000000000000000000A3
:100756000000000000000000000000000000000093
:100766000000000000000000000000000000000083
:100776000000000000000000000000000000000073
:100786000000000000000000000000000000000063
:100796000000000000000000000000000000000053
:1007A6000000000000000000000000000000000043
:1007B6000000000000000000000000000000000033
:1007C6000000000000000000000000000000000023
:1007D6000000000000000000000000000000000013
:1007E6000000000000000000000000000000000003
:1007F60000000000000000000000000000000000F3
:1008060000000000000000000000000000000000E2
:1008160000000000808040404040808000000000D2
:1008260000F0FC0F01000000000000010FFCE000DA
:10083600001FFFC00000000000000000C0FF3F00D6
:100846000000000306040808080804060300000068
:10085600004040C0C040000000000040C0C0400052
:1008660000000007FFF80000000080780700000085
:1008760000000000000FFFF0807807000000000075
:10088600000000000000000F030000000000000050
:10089600004040C0C040404040404040C0C0000012
:1008A600000000FFFF000000000080E000010600DD
:1008B600000000FFFF0101010101030F000080009D
:1008C6000008080F0F080808080808080C0E0100A1
:1008D600004040C0C04040404040C0808000000012
:1008E600000000FFFF000000000080C17F3E000006
:1008F600000000FFFF010101073FF9C000000000F2
:100906000008080F0F0808000000010F0E08080075
:1009160000000000000000000000000000000000D1
:1009260000000000000000000000000000000000C1
:1009360000000000000000000000000000000000B1
:1009460000000000000000000000000000000000A1
:100956000000000000000000000000000000000091
:100966000000000000000000000000000000000081
:100976000000000000000000000000000000000071
:100986000000000000000000000000000000000061
:10099600000000000080C060303C18000000F0F04D
:1009A600101010101010101010F8F00000000000C9
:1009B600000004040201C0E0301C0F0602003F3FA5
:1009C6001111111111111111113F3F80000000008A
:1009D60000000804020100FF00001010111131D1BF
:1009E60091111111111111FFFF11111119100000B0
:1009F600000000000000403F000000000000000072
:100A0600030700101030703F3F0000000000000098
:100A160000000000000000000000C0F838100000D0
:100A260000000C78C000000000000000000000007C
:100A360000000000804030584E47414040C0C04052
:100A46004040404041C7EC583060E0C0C040000024
:100A56000000020100000000000000E07C1F010011
:100A66000000000000FFFF00000000000000000082
:100A760000000040402010180C060301000000088A
:100A8600101070303C1F0100000000000000000044
:100A96000102040810204080000000000000000150
:100AA600010000000000000000000000000001003E
:100AB600000100000000000000000000000001002E
:100AC600000100000000000000000000000001001E
:100AD600000100000000000000000000000100000E
:100AE60000000100000000000000000001000000FE
:100AF60000000001000000000000000100000000EE
:100B060000000000010000000000010000000000DD
:100B160000000000000100000001000000000000CD
:100B260000000000000001000100000000000000BD
:100B360000000000000000010101010101010100A7
:100B46000001010101010101000000000000010097
:100B5600000100000000000000000000000001008D
:100B6600000100000000000000000000000001007D
:100B7600000100000000000000000000000100006D
:100B8600000001000000000000000000010101015A
:100B96000101010100000000000000010101010146
:100BA6000101010101000000000000010000000039
:100BB600000000000100000000000000010100002C
:100BC600000001010000000000000000000001001C
:100BD600000100000000000000000000000001000D
:100BE60000010000000000000000000000000100FD
:100BF60000010000000000000000000000000100ED
:100C060000010000000000000101010101010100D6
:100C160000010101010101010100000000000000C6
:100C260000000000000000010001010000000000BB
:100C360000000000000101000000000100000000AB
:100C4600000000000100000000000000010000009C
:100C5600000000010000000000000000010101008A
:100C6600000101010000000000000000000001007A
:100C7600000100000000000000000000000001006C
:100C8600000100000000000000000000000000015C
:080C9600010000000000000055
:101484000E1500010001000100010001000100012E
:0914940007090101010101010138
:04134A00AA06AB073D
:10134E00EB1B70011A144A6032000000E4754A6EFD
:10135E00754917F548F547AF4AAE49AD48AC47EC6D
:10136E004D4E4F60DBEF24FFF54AEE34FFF549EDAD
:0B137E0034FFF548EC34FFF54780DC3D
:011389002241
:02138A00AB07AF
:10138C00AF031BEF6031000000E4754E04F54DF522
:10139C004CF54BAF4EAE4DAD4CAC4BEC4D4E4F6097
:1013AC00DFEF24FFF54EEE34FFF54DED34FFF54C39
:0713BC00EC34FFF54B80DC6F
:0113C3002207
:0714E70075CEDC75CDC022BB
:0B14CA008FCFE5CD30E7FB75CDC022D1
:0E14BC0075CFFFE5CD30E7FB75CDC0AFCF2279
:1014200090FE86F090FE81748AF0121438EF90FEE0
:0814300086F090FE81748AF041
:0F14380090FE82E030E6F990FE82E054BFF02291
:0914D50090FE817481F0021438CC
:0914DE0090FE817486F0021438BE
:0F149E001214D5747812142EE41214200214DEE6
:1013F50024D6F58274023EF583E5822526F582E53D
:08140500833525F583E493FF14
:10140D001214D590FE867478121431744012142083
:03141D000214DED8
:08144700E52FC454F0FDAF3A9B
:10144F00EF44B0FF12149EED54F0C4540F4410FF3C
:0A145F0012149EED540FFF02149EBC
:101203007FAE12149EE4FF12149E7F1012149E7F71
:101213004012149E7FB012149E7F8112149E7FFF92
:1012230012149E7FA112149E7FA612149E7FC912D0
:10123300149E7FA812149E7F3F12149E7FD3121414
:101243009EE4FF12149E7FD512149E7F8012149E7B
:101253007FD912149E7FF112149E7FDA12149E7F9F
:101263001212149E7FDB12149E7F4012149E7F8DF8
:0D12730012149E7F1412149E7FAF02149E71
:10146900D2AFD2AC759850438E40538EFE53890F3C
:0B147900758B8F758DFDC2ABD28E22EB
:10000300AE07EE131313541FFF12144FE52A700AA1
:10001300EE5407900A9693FF8002AF2A12140D2222
:0F14AD00EF131313541FFF12144FAF2A02140D25
:040F80008F42AE05E9
:100F8400E4F544F545F546F543F9F535F52EFCEC65
:100F9400C39410400302104DE4F52AE53B2EFF54A0
:100FA40007FDC374089D252EFCD3941040027C10C9
:100FB400E4F53AE4F52A852E3BE53BC39C505FE516
:100FC40042253AF543E53B2EF9E546131313541F26
:100FD400FDE9131313541FB505047D0180027D0040
:100FE400E53BC454F0249EF582E4340AF583E5829B
:100FF400253AF582E43583F583E493B401047B0157
:1010040080027B00EB5D600BE95407900A96932500
:101014002AF52AE53B2EF5460535053B809BE5423E
:10102400253A14F544E53B2E14F545AD44FF12145E
:10103400ADE4FF053AE53AC394105003020FB7E557
:0910440035C4540FF52E020F9380
:01104D002280
:101280008F4FA903E552240BFFE433FEEDD39FEE0D
:101290006480F874809850047F0180027F00ED2400
:1012A0000BFDE433FCE552FBC3ED9B7480F86C98B6
:1012B00040047E0180027E00EE5F603EE54F240B1D
:1012C000FFE433FEE9D39FEE6480F8748098500405
:1012D0007F0180027F00E9240BFDE433FCE54FFB36
:1012E000C3ED9B7480F86C9840047E0180027E0000
:0D12F000EE5F60037F01227F00227F00225D
:040E83008F3CAE05ED
:100E8700E4F53FF540F541F53DF53EF535F52EFC2A
:100E9700ECC394104003020F7FE4F52AE53B2EF9DB
:100EA7005407FFC374089F252EFCD3941040027C7F
:100EB70010E4F53AE4F52AE52EFBEE2BFBE433FAD2
:100EC700C3EB9440EA6480948040057C10020F7560
:100ED700852E3BE53BC39C5074E53C253AF53DE543
:100EE7003B2EFFF53EE541131313541FFDE53E135B
:100EF7001313541FB505047D0180027D00E53BC433
:100F070054F0249EF582E4340BF583E582253AF507
:100F170082E43583F583E493B401047B0180027B8B
:100F270000EB5D600CE53E5407900A9693252AF581
:100F37002A8F410535E53BFBEE2BFBE433FAC3EB88
:100F47009440EA648094805004053B8086E53C2504
:100F57003A14F53FE53B2E14F540AD3FFF1214ADB3
:100F6700E4F9053AE53AC394105003020EBBE535A0
:080F7700C4540FF52E020E9781
:010F7F00224F
:1013C400E4FDFC7F2212149EAF0512149E7F0712C7
:1013D400149EE4FBFAE4FF12140D0BBB00010AEBAC
:1013E40064804A70F00DBD00010CED64084C70D3AC
:0113F40022D6
:100C9E00E4F525F526F52FE4F53A121447E4F53B75
:100CAE0074962526F58274051214060526E526701F
:100CBE00020525053BE53BC3941040E4053AE53AB1
:100CCE00C3940440D5052FE52FC3940840C9E4F51D
:100CDE002F753A04121447E4F53B74962526F582D7
:100CEE0074051214060526E52670020525053BE55A
:100CFE003BC3941040E4053AE53AC3940840D50549
:100D0E002FE52FC3940840C92092FD3092FD121397
:100D1E00C4E4F525F526F52F753A02E52FC43354B4
:100D2E00E0FDAF3A12144FE4F53BE5269009969399
:100D3E00FF12140D0526E52670020525053BE53B41
:100D4E00C3942040E5053AE53AC3940640CD052FFD
:100D5E00E52FC3940240C1E4F525F526753A027DD0
:100D6E0040AF3A12144FE4F53B74962526F5827483
:100D7E00051214060526E52670020525053BE53B02
:100D8E00C3941040E4053AE53AC3940640D1E4F525
:100D9E0025F526753A027D50AF3A12144FE4F53B15
:100DAE00AE23AF247C007D641210607C007D0A129D
:100DBE001060EDAE047806C333CE33CED8F91213DD
:100DCE00F50526E52670020525053BE53BC3941087
:100DDE0040CE053AE53AC3940640BBE4F525F52628
:100DEE00753A027D60AF3A12144FE4F53BAE23AF75
:100DFE00247C007D0A1210607C007D0A121060EDCA
:100E0E00AE047806C333CE33CED8F91213F50526C9
:100E1E00E52670020525053BE53BC3941040CE0543
:100E2E003AE53AC3940640BBE4F525F526753A0239
:100E3E007D70AF3A12144FE4F53BAE23AF247C0025
:100E4E007D0A121060EDAE047806C333CE33CED8D1
:100E5E00F91213F50526E52670020525053BE53B3F
:100E6E00C3941040D5053AE53AC3940640C2209289
:050E7E00FD3092FD2291
:10117700E4F592F591F5B2F5B175A20C75BA8090C8
:10118700FE8074C0F01212031214E71214691213CE
:10119700C4E4F52AD291D296D293D297D2927538D7
:1011A70018753938F529F523F524F534F510F511B7
:1011B70030931130970E30910B309608309205E43A
:1011C700F527F5282093067527007528012097062F
:1011D70075270075280220910675270075280320BA
:1011E700960675270075280420920675270075282E
:0C11F700058528992099FD1213C480B4CE
:030023000214EED6
:0614EE00309902C29932A0
:1010F700021177E493A3F8E493A34003F68001F287
:1011070008DFF48029E493A3F85407240CC8C333F9
:10111700C4540F4420C8834004F456800146F6DFC8
:10112700E4800B0102040810204080901484E47EC0
:10113700019360BCA3FF543F30E509541FFEE493BD
:10114700A360010ECF54C025E060A840B8E493A384
:10115700FAE493A3F8E493A3C8C582C8CAC583CAAF
:10116700F0A3C8C582C8CAC583CADFE9DEE780BE67
:01149D00004E
:10104E00EF8DF0A4A8F0CF8CF0A428CE8DF0A42EB6
:02105E00FE2270
:10106000BC000BBE0029EF8DF084FFADF022E4CC74
:10107000F875F008EF2FFFEE33FEEC33FCEE9DEC3D
:10108000984005FCEE9DFE0FD5F0E9E4CEFD22ED83
:10109000F8F5F0EE8420D21CFEADF075F008EF2FCD
:1010A000FFED33FD4007985006D5F0F222C398FDBE
:0510B0000FD5F0EA225B
:1010B500C2D5EC30E709B2D5E4C39DFDE49CFCEE56
:1010C50030E715B2D5E4C39FFFE49EFE121060C35E
:1010D500E49DFDE49CFC800312106030D507C3E459
:0610E5009FFFE49EFE22C5
:1012FD00AC53AD54AE55AF567810EC4D4E4F700407
:10130D007CA57DA5C3EC13FCED13FDEE13FEEF13D1
:10131D00FF5010EC64CCFCED644CFDEE644EFEEF22
:10132D0064CEFFD8DF8C538D548E558F56EE547F7F
:0D133D00FE228E538F5474A5F555F55622EF
:00000001FF
